{
  "contractName": "Voting",
  "abi": [
    {
      "inputs": [
        {
          "internalType": "bytes32[]",
          "name": "candidateNames",
          "type": "bytes32[]"
        }
      ],
      "payable": false,
      "stateMutability": "nonpayable",
      "type": "constructor"
    },
    {
      "constant": true,
      "inputs": [
        {
          "internalType": "uint256",
          "name": "",
          "type": "uint256"
        }
      ],
      "name": "candidateList",
      "outputs": [
        {
          "internalType": "bytes32",
          "name": "",
          "type": "bytes32"
        }
      ],
      "payable": false,
      "stateMutability": "view",
      "type": "function"
    },
    {
      "constant": true,
      "inputs": [
        {
          "internalType": "bytes32",
          "name": "",
          "type": "bytes32"
        }
      ],
      "name": "voteReceived",
      "outputs": [
        {
          "internalType": "uint8",
          "name": "",
          "type": "uint8"
        }
      ],
      "payable": false,
      "stateMutability": "view",
      "type": "function"
    },
    {
      "constant": false,
      "inputs": [
        {
          "internalType": "bytes32",
          "name": "candidate",
          "type": "bytes32"
        }
      ],
      "name": "voteForCandidate",
      "outputs": [],
      "payable": false,
      "stateMutability": "nonpayable",
      "type": "function"
    },
    {
      "constant": true,
      "inputs": [
        {
          "internalType": "bytes32",
          "name": "candidate",
          "type": "bytes32"
        }
      ],
      "name": "totalVotesFor",
      "outputs": [
        {
          "internalType": "uint8",
          "name": "",
          "type": "uint8"
        }
      ],
      "payable": false,
      "stateMutability": "view",
      "type": "function"
    },
    {
      "constant": true,
      "inputs": [
        {
          "internalType": "bytes32",
          "name": "candidate",
          "type": "bytes32"
        }
      ],
      "name": "validCandidate",
      "outputs": [
        {
          "internalType": "bool",
          "name": "",
          "type": "bool"
        }
      ],
      "payable": false,
      "stateMutability": "view",
      "type": "function"
    }
  ],
  "bytecode": "0x608060405234801561001057600080fd5b506040516104733803806104738339818101604052602081101561003357600080fd5b810190808051604051939291908464010000000082111561005357600080fd5b8382019150602082018581111561006957600080fd5b825186602082028301116401000000008211171561008657600080fd5b8083526020830192505050908051906020019060200280838360005b838110156100bd5780820151818401526020810190506100a2565b5050505090500160405250505080600090805190602001906100e09291906100e7565b5050610159565b828054828255906000526020600020908101928215610123579160200282015b82811115610122578251825591602001919060010190610107565b5b5090506101309190610134565b5090565b61015691905b8082111561015257600081600090555060010161013a565b5090565b90565b61030b806101686000396000f3fe608060405234801561001057600080fd5b50600436106100575760003560e01c80632f265cf71461005c578063392e6678146100a4578063b13c744b146100ea578063ba86cbcf1461012c578063cc9ab26714610174575b600080fd5b6100886004803603602081101561007257600080fd5b81019080803590602001909291905050506101a2565b604051808260ff1660ff16815260200191505060405180910390f35b6100d0600480360360208110156100ba57600080fd5b81019080803590602001909291905050506101e5565b604051808215151515815260200191505060405180910390f35b6101166004803603602081101561010057600080fd5b810190808035906020019092919050505061023b565b6040518082815260200191505060405180910390f35b6101586004803603602081101561014257600080fd5b810190808035906020019092919050505061025c565b604051808260ff1660ff16815260200191505060405180910390f35b6101a06004803603602081101561018a57600080fd5b810190808035906020019092919050505061027c565b005b6000600115156101b1836101e5565b1515146101bd57600080fd5b6001600083815260200190815260200160002060009054906101000a900460ff169050919050565b600080600090505b60008054905081101561023057826000828154811061020857fe5b90600052602060002001541415610223576001915050610236565b80806001019150506101ed565b50600090505b919050565b6000818154811061024857fe5b906000526020600020016000915090505481565b60016020528060005260406000206000915054906101000a900460ff1681565b60011515610289826101e5565b15151461029557600080fd5b600180600083815260200190815260200160002060008282829054906101000a900460ff160192506101000a81548160ff021916908360ff1602179055505056fea265627a7a72315820b395a8afbb70648b15014e0dd6ed18bd3d261614699c635fa0e75df30c807f8364736f6c63430005100032",
  "source": "// SPDX-License-Identifier: GPL-3.0\r\n\r\npragma solidity >=0.5.0 <0.9.0;\r\n\r\ncontract Voting{\r\n    \r\n    bytes32[] public candidateList;\r\n    mapping (bytes32 =>uint8) public voteReceived;\r\n    \r\n    constructor(bytes32[] memory candidateNames) public{\r\n        candidateList = candidateNames;\r\n    }\r\n\r\n    \r\n    function voteForCandidate(bytes32 candidate) public {\r\n        require(validCandidate(candidate) == true);\r\n        voteReceived[candidate]+=1;\r\n    }\r\n    \r\n    function totalVotesFor(bytes32 candidate) public view returns(uint8){\r\n        require(validCandidate(candidate) == true);\r\n        return voteReceived[candidate];\r\n    }\r\n    \r\n    function validCandidate(bytes32 candidate) view public returns(bool){\r\n        for(uint i=0;i<candidateList.length; i++){\r\n            if(candidateList[i] == candidate ){\r\n                return true;\r\n            }\r\n        }\r\n        return false;\r\n    }\r\n    \r\n}",
  "sourcePath": "C:/Users/holyh/code/projects_Dapp/Voting/contracts/Voting.sol",
  "compiler": {
    "name": "solc",
    "version": "0.5.16+commit.9c3226ce.Emscripten.clang"
  },
  "schemaVersion": "3.4.1",
  "updatedAt": "2021-07-20T14:26:19.786Z",
  "devdoc": {
    "methods": {}
  },
  "userdoc": {
    "methods": {}
  }
}